S01700004763634170706C69636174696F6E312E737265635B
S11300000C9434000C9451000C9451000C94510045
S11300100C9451000C9451000C9451000C94510018
S11300200C9451000C9451000C9451000C94510008
S11300300C9451000C9451000C9451000C945100F8
S11300400C9451000C9451000C9496000C945100A3
S11300500C9451000C9451000C9451000C945100D8
S11300600C9451000C94510011241FBECFEFD8E022
S1130070DEBFCDBF11E0A0E0B1E0EEE7F1E002C0E9
S113008005900D92A231B107D9F721E0A2E1B1E0C8
S113009001C01D92A231B207E1F70E9453000C94F3
S11300A0BD000C9400008FEF84B990E89AB91092C7
S11300B0C5008093C40088E98093C10086E08093E2
S11300C0C2007894FFCFCF93DF93CDB7DEB76297AA
S11300D00FB6F894DEBF0FBECDBF92E1E0E0F1E0D1
S11300E0DE01119601900D929A95E1F7E82FF0E068
S11300F0EE0FFF1F81E090E08C0F9D1FE80FF91FAA
S1130100808185B98081918190FF04C08BB1806822
S11301108BB903C08BB18F778BB962960FB6F89405
S1130120DEBF0FBECDBFDF91CF9108951F920F9216
S11301300FB60F9211242F933F934F935F936F93B6
S11301407F938F939F93AF93BF93EF93FF9380918C
S1130150C60080530E946300FF91EF91BF91AF915D
S11301609F918F917F916F915F914F913F912F91CB
S11101700F900FBE0F901F901895F894FFCFBC
S113017EF0007000300010000F00070003000100B3
S105018E00016A
S9030000FC
