:100000000C9424010C9497010C9441010C9441012F
:100010000C9441010C94CA010C9441010C944101CF
:100020000C9441010C9441010C9441010C94410148
:100030000C9441010C9441010C9443010C94410136
:100040000C9441010C9441010C9441010C94410128
:100050000C9441010C9441010C9441010C94410118
:100060000C9441010C944101000000000000005F6D
:1000700000000007000700147F147F14242A7F2A41
:10008000122313086462364955225000050300000C
:10009000001C2241000041221C0014083E081408E4
:1000A000083E0808005030000008080808080060F2
:1000B00060000020100804023E5149453E00427F86
:1000C000400042615149462141454B311814127F8D
:1000D0001027454545393C4A494930017109050316
:1000E0003649494936064949291E0036360000007E
:1000F0005636000008142241001414141414004150
:100100002214080201510906324979413E7E11113B
:10011000117E7F494949363E414141227F4141227A
:100120001C7F494949417F090909013E4149497AF2
:100130007F0808087F00417F41002040413F017F48
:10014000081422417F404040407F020C027F7F0420
:1001500008107F3E4141413E7F090909063E415159
:10016000215E7F09192946464949493101017F012C
:10017000013F4040403F1F2040201F3F4038403F4C
:100180006314081463070870080761514945430068
:100190007F41410002040810200041417F00040219
:1001A0000102044040404040000102040020545439
:1001B00054787F48444438384444442038444448C0
:1001C0007F3854545418087E0901020C5252523E92
:1001D0007F0804047800447D40002040443D007FB7
:1001E0001028440000417F40007C041804787C08FB
:1001F00004047838444444387C1414140808141453
:10020000187C7C080404084854545420043F44409B
:10021000203C4040207C1C2040201C3C4030403C86
:1002200044281028440C5050503C4464544C440022
:100230000836410000007F00000041360800100829
:10024000081008000000000011241FBECFEFD8E006
:10025000DEBFCDBF11E0A0E0B1E0E8EFF5E202C003
:1002600005900D92A034B107D9F723E0A0E4B1E0E6
:1002700001C01D92AB35B207E1F70E9403030C9455
:10028000FA120C9400001F920F9200905F000F92E0
:1002900011248F939F93AF93BF93CF93DF93CDB7E9
:1002A000DEB78091420190914301A0914401B09149
:1002B00045010196A11DB11D809342019093430118
:1002C000A0934401B093450180914601909147016C
:1002D000A0914801B09149010196A11DB11D8093E3
:1002E000460190934701A0934801B0934901809142
:1002F0004A0190914B01A0914C01B0914D010196A2
:10030000A11DB11D80934A0190934B01A0934C0114
:10031000B0934D010000DF91CF91BF91AF919F91BC
:100320008F910F9000925F000F901F9018951F9271
:100330000F9200905F000F9211242F938F939F9341
:10034000AF93BF93CF93DF93CDB7DEB780914601D4
:1003500090914701A0914801B0914901893E934095
:10036000A105B10548F480914E0190914F0101968D
:1003700090934F0180934E010000DF91CF91BF9188
:10038000AF919F918F912F910F9000925F000F90EE
:100390001F9018951F920F9200905F000F921124EA
:1003A0002F933F938F939F93EF93FF93CF93DF937D
:1003B000CDB7DEB789E290E0FC018081882F90E024
:1003C00080729927892B09F074C080915601882F7B
:1003D00090E08130910529F1823091051CF4892B40
:1003E00041F067C08230910571F1039709F44AC06A
:1003F00060C08091400190914101892B29F01092B9
:1004000041011092400155C08091400190914101FD
:10041000892B39F481E090E0909341018093400171
:1004200048C08091010190910201803D9740E0F128
:100430008091010190910201885E934090930201A6
:100440008093010131C08091030190910401803DAE
:10045000974060F1209103013091040180910501E2
:100460009091060188519C4F82179307F8F4809170
:10047000030190910401885E93409093040180935E
:10048000030114C08091050190910601803D9740C1
:1004900078F08091050190910601885E93409093D9
:1004A00006018093050104C0000003C0000001C0E4
:1004B000000089E290E0FC018081882F90E080714B
:1004C0009927892B09F074C080915601882F90E0FC
:1004D0008130910529F1823091051CF4892B41F07E
:1004E00067C08230910571F1039709F43DC060C087
:1004F0008091400190914101892B29F01092410196
:100500001092400155C08091400190914101892B8A
:1005100039F481E090E0909341018093400148C01C
:10052000809101019091020181349F41E0F5809119
:1005300001019091020188519C4F90930201809398
:10054000010131C0809103019091040181349F41E8
:1005500060F5809103019091040188519C4F909324
:1005600004018093030121C080910501909106014F
:1005700081349F41E0F42091050130910601809182
:10058000030190910401885E93402817390778F49D
:10059000809105019091060188519C4F909306012E
:1005A0008093050104C0000003C0000001C00000EA
:1005B00089E290E0FC018081882F90E08074992787
:1005C000892B91F480915601833060F48091400131
:1005D00090914101019731F4809156018F5F809392
:1005E000560102C0109256010000DF91CF91FF9199
:1005F000EF919F918F913F912F910F9000925F000B
:100600000F901F901895EF92FF920F931F93CF9327
:10061000DF9300D0CDB7DEB787E290E027E230E08D
:10062000F90120812F7BFC01208388E290E028E201
:1006300030E0F90120812064FC01208387E290E012
:1006400027E230E0F90120812E7FFC01208388E23F
:1006500090E028E230E0F90120812E7FFC01208328
:1006600084E290E02FEFFC0120838AE290E02AE20E
:1006700030E0F90120812B7FFC0120838AE290E0A9
:100680002AE230E0F90120812160FC0120838AE226
:1006900090E02AE230E0F90120812860FC0120830B
:1006A0008AE290E02AE230E0F90120812F77FC0114
:1006B000208384E090E09A8389832AC08AE290E0D4
:1006C0002AE230E0F9012081422F21E030E0098068
:1006D00002C0220F331F0A94E2F720952423FC0165
:1006E00020838BE290E02BE230E0F9012081422F61
:1006F00021E030E0098002C0220F331F0A94E2F7A4
:10070000242BFC01208389819A8101969A83898315
:1007100089819A81079794F289E690E02AE0FC01AA
:1007200020838DE390E023E0FC01208388E690E0C5
:1007300024E0FC0120838DE690E020E7FC0120838B
:10074000789484E490E022E0FC01208385E490E04A
:1007500023E0FC01208387E490E029EFFC01208363
:100760008EE690E022E0FC0120838CE790E020E41C
:10077000FC0120838AE790E027EEFC0120838BE7D1
:1007800090E0FC0110828EE790E021E0FC012083E4
:1007900080EB90E023E2FC01208381EB90E026E0F7
:1007A000FC01208384EB90E020E8FC01208385ECB1
:1007B00090E0FC01108284EC90E02FEFFC0120839C
:1007C00081EC90E028E9FC01208382EC90E026E0B7
:1007D000FC0120830E941C0B4091050150910601F1
:1007E0002091030130910401809101019091020157
:1007F000B9010E9407090E941C080E94C607809147
:10080000420190914301A0914401B09145017C01C6
:100810008D01209100013091010140910201509120
:1008200003016091040170910501809106010E940D
:100830001A04E1CFEF92FF920F931F93CF93DF93B0
:10084000CDB7DEB76D970FB6F894DEBF0FBECDBF44
:100850002B8B3C8B4D8B5E8B6F8B788F898FEA8EC9
:10086000FB8E0C8F1D8F22E1E7E0F1E0CE010196B7
:10087000DC0101900D922A95E1F785E290E020914C
:100880005701022E000C330B220F331FAE014F5FB6
:100890005F4F240F351FF90120813181FC01208336
:1008A0008091570184300CF04BC085E290E025E246
:1008B00030E0F90120812E7FFC01208380915801D6
:1008C00090915901A0915A01B0915B012A8D3B8D05
:1008D0004C8D5D8D281B390B4A0B5B0B8C899D89D8
:1008E0009695879596958795CC01A0E0B0E028175E
:1008F00039074A075B0708F4CCC0809157018F5F26
:10090000809357018C899D899695879596958795B3
:100910009C0140E050E08091580190915901A091D4
:100920005A01B0915B01820F931FA41FB51F8093E2
:10093000580190935901A0935A01B0935B01A9C04B
:10094000809157018530D4F58091580190915901DB
:10095000A0915A01B0915B012A8D3B8D4C8D5D8D2C
:10096000281B390B4A0B5B0B888D998DCC01A0E0BD
:10097000B0E0281739074A075B0708F48AC080915E
:1009800057018F5F80935701888D998D9C0140E0BE
:1009900050E08091580190915901A0915A01B09175
:1009A0005B01820F931FA41FB51F80935801909382
:1009B0005901A0935A01B0935B016BC0809157011C
:1009C00089300CF04CC085E290E025E230E0F9017E
:1009D00020812160FC0120830E944D0680915801F6
:1009E00090915901A0915A01B0915B012A8D3B8DE4
:1009F0004C8D5D8D281B390B4A0B5B0B8E899F89B3
:100A00009695879596958795CC01A0E0B0E028173C
:100A100039074A075B07E8F1809157018F5F8093A0
:100A200057018E899F8996958795969587959C0104
:100A300040E050E08091580190915901A0915A01F5
:100A4000B0915B01820F931FA41FB51F80935801C3
:100A500090935901A0935A01B0935B011AC0109270
:100A600057018A8D9B8DAC8DBD8D809358019093DD
:100A70005901A0935A01B0935B018A8D9B8DAC8D77
:100A8000BD8D80935C0190935D01A0935E01B09356
:100A90005F018091600184300CF04FC080915C0157
:100AA00090915D01A0915E01B0915F012A8D3B8D17
:100AB0004C8D5D8D281B390B4A0B5B0B6C897D8936
:100AC000888D998D860F971F969587959695879512
:100AD000CC01A0E0B0E0281739074A075B0708F40B
:100AE000CEC0809160018F5F809360012C893D8929
:100AF000888D998D820F931F9695879596958795EA
:100B00009C0140E050E080915C0190915D01A091DA
:100B10005E01B0915F01820F931FA41FB51F8093E8
:100B20005C0190935D01A0935E01B0935F018091A1
:100B30006001805D0E94EC08A2C080916001883055
:100B40000CF053C080915C0190915D01A0915E0119
:100B5000B0915F012A8D3B8D4C8D5D8D281B390B2B
:100B60004A0B5B0B6E897F89888D998DFB01E81B91
:100B7000F90BCF019695879596958795CC01A0E0C6
:100B8000B0E0281739074A075B0708F478C080915E
:100B900060018F5F809360012E893F89888D998DD8
:100BA000A901481B590BCA0196958795969587957B
:100BB0009C0140E050E080915C0190915D01A0912A
:100BC0005E01B0915F01820F931FA41FB51F809338
:100BD0005C0190935D01A0935E01B0935F018091F1
:100BE0006001805D0E94EC084AC0809160018930FC
:100BF0000CF03EC080915C0190915D01A0915E017E
:100C0000B0915F012A8D3B8D4C8D5D8D281B390B7A
:100C10004A0B5B0B888D998DCC01A0E0B0E02817C2
:100C200039074A075B0758F1809160018F5F809315
:100C30006001888D998D9C0140E050E080915C01BD
:100C400090915D01A0915E01B0915F01820F931FB1
:100C5000A41FB51F80935C0190935D01A0935E017A
:100C6000B0935F0180916001805D0E94EC0807C035
:100C70001092600180916001805D0E94EC0800008C
:100C80006D960FB6F894DEBF0FBECDBFDF91CF914A
:100C90001F910F91FF90EF900895CF93DF93CDB701
:100CA000DEB7A8970FB6F894DEBF0FBECDBF85E2C2
:100CB00090E025E230E0F90120812062FC012083F0
:100CC00080E090E0A0E2B1E489879A87AB87BC8797
:100CD0002BEA3AEA4AEA50E469857A858B859C8555
:100CE0000E94470FDC01CB018D879E87AF87B88BB1
:100CF00020E030E040E850E469857A858B859C856A
:100D00000E94470FDC01CB01898B9A8BAB8BBC8B8C
:100D100020E030E040E85FE36D857E858F8598892F
:100D20000E94270E88231CF481E08D8BB2C020E046
:100D30003FEF4FE757E469897A898B899C890E9444
:100D4000420F18160CF07BC020E030E04AE754E474
:100D500069857A858B859C850E942C0EDC01CB01F0
:100D60008E8B9F8BA88FB98F20E030E04AE755E447
:100D70006E897F89888D998D0E94470FDC01CB0198
:100D80008A8F9B8FAC8FBD8F20E030E040E85FE31F
:100D90006A8D7B8D8C8D9D8D0E94270E88232CF46F
:100DA00081E090E09F8F8E8F3FC020E03FEF4FE7C4
:100DB00057E46A8D7B8D8C8D9D8D0E94420F181695
:100DC0004CF520E030E040E251E46E897F89888D67
:100DD000998D0E94470FDC01CB01BC01CD010E941F
:100DE0009E0EDC01CB019F8F8E8F0FC080E991E0BA
:100DF00099A388A388A199A10197F1F799A388A342
:100E00008E8D9F8D01979F8F8E8F8E8D9F8D892BBD
:100E100069F73FC06A8D7B8D8C8D9D8D0E949E0EE3
:100E2000DC01CB019F8F8E8F8E8D9F8D9BA38AA31C
:100E30008AA19BA10197F1F79BA38AA32AC020E076
:100E400030E04FE753E46D857E858F8598890E9459
:100E5000420F1816ACF469897A898B899C890E94A3
:100E60009E0EDC01CB019DA38CA38CA19DA19FA311
:100E70008EA38EA19FA10197F1F79FA38EA30FC010
:100E80006D857E858F8598890E949E0EDC01CB0141
:100E90008D8B8D8988A788A58A95F1F788A785E22B
:100EA00090E025E230E0F90120812F7DFC012083D4
:100EB0001A82198289E290E0FC018081882334F053
:100EC00089819A8101969A838983F4CF000080E812
:100ED00090E0FC01108281E890E022E0FC01208398
:100EE00084E890E0FC01118210821C821B8289E25E
:100EF00090E0FC018081882374F484E890E0FC0198
:100F00008081918181369A4E40F48B819C8101963B
:100F10009C838B83ECCF000001C0000084E890E04C
:100F2000FC018081918196958795CC01A0E0B0E08D
:100F30008D839E83AF83B88781E890E0FC011082A7
:100F40008D819E81AF81B88580359D42A105B10517
:100F500050F485E290E025E230E0F901208120683C
:100F6000FC01208309C085E290E025E230E0F90130
:100F700020812F77FC0120830000A8960FB6F894FB
:100F8000DEBF0FBECDBFDF91CF910895CF93DF932A
:100F9000CDB7DEB788E790E0FC01808191819C01AC
:100FA00040E050E088E19CE9AFE0B0E0BC01CD0159
:100FB0000E94C00FDA01C901885E934090935301EB
:100FC0008093520180915201909153018D32914052
:100FD00028F084EB90E0FC0110821BC086E290E0D8
:100FE000FC018081882F90E080749927892B31F053
:100FF0008091500190915101892B31F084EB90E068
:101000002FEFFC01208305C084EB90E025E5FC0177
:1010100020834091050150910601209103013091F8
:1010200004018091010190910201B9010E94070918
:101030000000DF91CF910895CF93DF9300D000D0CF
:1010400000D0CDB7DEB78091460190914701A091C5
:101050004801B0914901883E9340A105B10508F4CB
:10106000B1C020914E0130914F014CE3429FC0012D
:10107000439F900D11249093510180935001109241
:101080004F0110924E0110924601109247011092AA
:101090004801109249018091400190914101892BB2
:1010A00009F090C088EE93E09093060180930501CB
:1010B0008091050190910601969587959695879563
:1010C000969587959C01A5ECB0E20E94DF0F929562
:1010D00082958F7089279F7089274E969A8389837E
:1010E00080915001909151019C01A9E8B8E80E94BB
:1010F000DF0F96958795929582958F7089279F70BF
:101100008927AC014F5F5F4F28EE33E0429FC0015B
:10111000439F900D529F900D112490930201809354
:101120000101809101019091020196958795969514
:101130008795969587959C01A5ECB0E20E94DF0FFC
:10114000929582958F7089279F7089270A969C8334
:101150008B8380915001909151019C01A9E8B8E8DE
:101160000E94DF0FAC0156954795529542954F70FE
:1011700045275F70452728E13CEF429FC001439F10
:10118000900D529F900D1124885D9C4D9093040109
:1011900080930301809103019091040196958795B6
:1011A00096958795969587959C01A5ECB0E20E944F
:1011B000DF0F929582958F7089279F7089274496BB
:1011C0009E838D83000026960FB6F894DEBF0FBE77
:1011D000CDBFDF91CF910895CF93DF931F92CDB70D
:1011E000DEB78983000080EC90E0FC018081882FCD
:1011F00090E080729927892BB1F386EC90E02981E9
:10120000FC01208300000F90DF91CF910895CF93D0
:10121000DF93CDB7DEB766970FB6F894DEBF0FBE8B
:10122000CDBF9A8B898B7C8B6B8B5E8B4D8B898929
:101230009A899695879596958795969587959C0119
:10124000A5ECB0E20E94DF0F929582958F708927FE
:101250009F708927292F2F938F9389E191E0892F00
:101260008F9389E191E08F93CE0101969F938F93A5
:101270000E9410100F900F900F900F900F900F90F2
:101280008B899C8996958795969587959695879550
:101290009C01A5ECB0E20E94DF0F929582958F70C1
:1012A00089279F708927292F2F938F9389E191E0B8
:1012B000892F8F9389E191E08F93CE010396292F97
:1012C0002F938F930E9410100F900F900F900F90FC
:1012D0000F900F908D899E89969587959695879505
:1012E000969587959C01A5ECB0E20E94DF0F929540
:1012F00082958F7089279F708927292F2F938F932D
:1013000089E191E0892F8F9389E191E08F93CE015C
:101310000596292F2F938F930E9410100F900F90F6
:101320000F900F900F900F9080915001909151016C
:10133000292F2F938F9389E191E0892F8F9389E152
:1013400091E08F93CE010796292F2F938F930E94C0
:1013500010100F900F900F900F900F900F908091A2
:10136000540190915501292F2F938F9389E191E09A
:10137000892F8F9389E191E08F93CE010B96292FCE
:101380002F938F930E9410100F900F900F900F903B
:101390000F900F908091520190915301292F2F931C
:1013A0008F9389E191E0892F8F9389E191E08F9369
:1013B000CE010D96292F2F938F930E9410100F901E
:1013C0000F900F900F900F900F900E949C0C6AE06E
:1013D00080E00E94F20D6AE080E00E94F20D61E080
:1013E0008CE191E00E94CF0D6AE080E20E94F20D54
:1013F0008091400190914101892B29F061E081E2C7
:1014000091E00E94CF0D8091400190914101892B84
:1014100029F461E083E291E00E94CF0D64E180E075
:101420000E94F20D61E085E291E00E94CF0D64E13F
:1014300080E20E94F20D61E0CE0101960E94CF0D84
:101440006EE180E00E94F20D61E08AE291E00E948C
:10145000CF0D6EE180E20E94F20DCE01039661E0B5
:101460000E94CF0D68E280E00E94F20D61E08FE201
:1014700091E00E94CF0D68E280E20E94F20DCE0161
:10148000059661E00E94CF0D6EE184E30E94F20DAB
:10149000CE01079661E00E94CF0D69E284E30E94CD
:1014A000F20D61E084E391E00E94CF0D65E084E3FA
:1014B0000E94F20DCE010D9661E00E94CF0D6FE00B
:1014C00084E30E94F20D61E08AE391E00E94CF0D77
:1014D00080915601882F90E00196880F982F990FE0
:1014E000990F890F682F88E20E94F20D61E08EE368
:1014F00091E00E94CF0D0E94050E000066960FB687
:10150000F894DEBF0FBECDBFDF91CF9108951F933A
:10151000CF93DF9300D0CDB7DEB789836A8388E2AB
:1015200090E028E230E0F90120812D7FFC0120834A
:101530008A81882351F088E290E028E230E0F901C6
:1015400020812860FC01208309C088E290E028E225
:1015500030E0F9012081277FFC01208310E03CC0AE
:101560008981882F90E0212F30E047E050E0BA01D8
:10157000621B730B9B0102C0959587952A95E2F734
:1015800081709927892B51F088E290E028E230E0C1
:10159000F90120812061FC01208309C088E290E0EC
:1015A00028E230E0F90120812F7EFC01208388E2CF
:1015B00090E028E230E0F90120812062FC012083E4
:1015C00088E290E028E230E0F90120812F7DFC01E3
:1015D0002083812F11E0180F183010F288E290E07C
:1015E00028E230E0F90120812260FC012083000024
:1015F0000F900F90DF91CF911F910895CF93DF93BC
:101600001F92CDB7DEB7898360E089810E94870A87
:1016100000000F90DF91CF910895CF93DF931F9239
:10162000CDB7DEB7898361E089810E94870A000017
:101630000F90DF91CF9108950F931F93CF93DF9376
:10164000CDB7DEB76C970FB6F894DEBF0FBECDBF37
:1016500087E290E027E230E0F90120812260FC017E
:10166000208387E290E027E230E0F90120812460C6
:10167000FC01208387E290E027E230E0F90120813D
:101680002860FC01208387E290E027E230E0F90146
:1016900020812061FC01208387E290E027E230E096
:1016A000F90120812062FC01208388E290E028E299
:1016B00030E0F90120812460FC01208388E290E081
:1016C00028E230E0F90120812260FC01208380E0E3
:1016D00090E0A0E2B1E489839A83AB83BC8320E0ED
:1016E00030E04AE753E469817A818B819C810E94D2
:1016F000470FDC01CB018B8B9C8BAD8BBE8B20E02D
:1017000030E040E85FE36B897C898D899E890E9487
:10171000270E88232CF481E090E0988F8F8B3FC0B8
:1017200020E03FEF4FE757E46B897C898D899E89E4
:101730000E94420F18164CF520E030E040E251E4E0
:1017400069817A818B819C810E94470FDC01CB01EA
:10175000BC01CD010E949E0EDC01CB01988F8F8BC6
:101760000FC089E190E09A8F898F898D9A8D0197BA
:10177000F1F79A8F898F8F89988D0197988F8F8B2A
:101780008F89988D892B69F714C06B897C898D8925
:101790009E890E949E0EDC01CB01988F8F8B8F89D2
:1017A000988D9C8F8B8F8B8D9C8D0197F1F79C8FE3
:1017B0008B8F88E290E028E230E0F90120812B7FD6
:1017C000FC01208380E090E0ACE8B2E48D839E834E
:1017D000AF83B88720E030E04AE753E46D817E8133
:1017E0008F8198850E94470FDC01CB0189879A87FA
:1017F000AB87BC8720E030E040E85FE369857A850D
:101800008B859C850E94270E88232CF481E090E034
:101810009E878D873FC020E03FEF4FE757E4698503
:101820007A858B859C850E94420F18164CF520E026
:1018300030E040E251E46D817E818F8198850E9485
:10184000470FDC01CB01BC01CD010E949E0EDC01E3
:10185000CB019E878D870FC089E190E0988B8F87A1
:101860008F8598890197F1F7988B8F878D859E8555
:1018700001979E878D878D859E85892B69F714C07A
:1018800069857A858B859C850E949E0EDC01CB0143
:101890009E878D878D859E859A8B898B89899A896C
:1018A0000197F1F79A8B898B88E290E028E230E08B
:1018B000F90120812460FC01208388E290E028E285
:1018C00030E0F90120812D7FFC01208381E20E941C
:1018D000FE0A83E10E94FE0A86E00E94FE0A82EC74
:1018E0000E94FE0A80E20E94FE0A89E00E94FE0A2F
:1018F00080E80E94FE0A80E40E94FE0A00E010E0F8
:1019000005C080E00E940D0B0F5F1F4F083FF1E004
:101910001F07B8F388E00E94FE0A8CE00E94FE0ACE
:1019200000006C960FB6F894DEBF0FBECDBFDF91FE
:10193000CF911F910F9108950F931F93CF93DF9332
:10194000CDB7DEB780E80E94FE0A80E40E94FE0A5E
:101950001092590310925A0300E010E007C0C8012A
:101960008F599E4FFC0110820F5F1F4F083FF1E01F
:101970001F07A8F30000DF91CF911F910F910895E9
:10198000CF93DF9300D000D01F92CDB7DEB78B830B
:101990006C834D838C81869586958695882F90E003
:1019A00044E5489F9001499F300D11248B81882F79
:1019B00090E0820F931F8F599E4F9A8389838D8168
:1019C0008823C9F089819A81FC018081482F8C810C
:1019D000882F90E09C012770332781E090E002C0BF
:1019E000880F991F2A95E2F7842B282F89819A81E5
:1019F000FC01208319C089819A81FC018081482FD4
:101A00008C81882F90E09C012770332781E090E043
:101A100002C0880F991F2A95E2F780958423282F0A
:101A200089819A81FC01208300000F900F900F9014
:101A30000F900F90DF91CF9108950F931F93CF9345
:101A4000DF9300D000D01F92CDB7DEB78C836D83BB
:101A500010E065C000E04EC08C81882F90E09C01B2
:101A6000205231099D81812F692F0E94B40F482F88
:101A700050E0C901880F991F880F991F820F931F8B
:101A8000840F951F88599F4F9A83898389819A81F2
:101A9000FC0184918B838B81282F30E09D81802FE6
:101AA000692F0E94B40F882F90E0A90102C05595BC
:101AB00047958A95E2F7CA0181709927892B61F0D1
:101AC00080915A03982F900F80915903810F41E024
:101AD000692F0E94C00C0BC080915A03982F900F61
:101AE00080915903810F40E0692F0E94C00C802F24
:101AF00001E0080F402F50E08D81282F30E0C90110
:101B0000880F991F880F991F880F991F821B930BAD
:101B1000481759070CF4A0CF812F11E0180F412F5F
:101B200050E08D81282F30E0C901880F991F880F60
:101B3000991F820F931F481759070CF48BCF2091E0
:101B400059039D81892F880F880F890F820F8F5F1E
:101B50008093590380915903843570F01092590392
:101B600020915A039D81892F880F880F880F891B28
:101B7000820F8F5F80935A0380915A03803320F045
:101B80001092590310925A0300000F900F900F907B
:101B90000F900F90DF91CF911F910F910895CF93E8
:101BA000DF9300D01F92CDB7DEB79A8389836B8312
:101BB0000CC089819A819C012F5F3F4F3A83298312
:101BC000FC0180816B810E941D0D89819A81FC013D
:101BD0008081882371F700000F900F900F90DF91A4
:101BE000CF910895CF93DF9300D0CDB7DEB789832F
:101BF0006A838981809359038A8180935A03000004
:101C00000F900F90DF91CF9108950F931F93CF9373
:101C1000DF93CDB7DEB780E80E94FE0A80E40E9421
:101C2000FE0A00E010E009C0C8018F599E4FFC0178
:101C300080810E940D0B0F5F1F4F083FF1E01F07CF
:101C400098F30000DF91CF911F910F9108950E94AA
:101C5000CD0E08F481E008950E94400E0C94080F08
:101C60000E94010F58F00E94FA0E40F029F45F3FE5
:101C700029F00C94F10E51110C943C0F0C94F70EBA
:101C80000E94190F68F39923B1F3552391F3951B23
:101C9000550BBB27AA2762177307840738F09F5F8D
:101CA0005F4F220F331F441FAA1FA9F335D00E2EFA
:101CB0003AF0E0E832D091505040E695001CCAF767
:101CC0002BD0FE2F29D0660F771F881FBB1F26172A
:101CD00037074807AB07B0E809F0BB0B802DBF0101
:101CE000FF2793585F4F3AF09E3F510578F00C94D0
:101CF000F10E0C943C0F5F3FE4F3983ED4F38695CD
:101D000077956795B795F7959F5FC9F7880F911DF0
:101D10009695879597F90895E1E0660F771F881FDC
:101D2000BB1F621773078407BA0720F0621B730B8F
:101D3000840BBA0BEE1F88F7E09508950E94210FDF
:101D400088F09F5798F0B92F9927B751B0F0E1F07C
:101D5000660F771F881F991F1AF0BA95C9F714C02C
:101D6000B13091F00E943B0FB1E008950C943B0F0D
:101D7000672F782F8827B85F39F0B93FCCF3869565
:101D800077956795B395D9F73EF4909580957095C2
:101D900061957F4F8F4F9F4F0895990F0008550F02
:101DA000AA0BE0E8FEEF16161706E807F907C0F0E1
:101DB00012161306E407F50798F0621B730B840BE9
:101DC000950B39F40A2661F0232B242B252B21F4C3
:101DD00008950A2609F4A140A6958FEF811D811D63
:101DE000089597F99F6780E870E060E008959FEF9D
:101DF00080EC089500240A941616170618060906A2
:101E0000089500240A941216130614060506089570
:101E1000092E0394000C11F4882352F0BB0F40F4F8
:101E2000BF2B11F460FF04C06F5F7F4F8F4F9F4F38
:101E3000089557FD9058440F551F59F05F3F71F0BA
:101E40004795880F97FB991F61F09F3F79F0879521
:101E50000895121613061406551FF2CF4695F1DFAA
:101E600008C0161617061806991FF1CF869571053A
:101E7000610508940895E894BB2766277727CB016E
:101E800097F908950E94CD0E08F48FEF08950E94EF
:101E90005A0F0C94080F0E94FA0E38F00E94010F9E
:101EA00020F0952311F00C94F10E0C94F70E1124F0
:101EB0000C943C0F0E94190F70F3959FC1F3950F7E
:101EC00050E0551F629FF001729FBB27F00DB11DBE
:101ED000639FAA27F00DB11DAA1F649F6627B00D4E
:101EE000A11D661F829F2227B00DA11D621F739F37
:101EF000B00DA11D621F839FA00D611D221F749F45
:101F00003327A00D611D231F849F600D211D822F8B
:101F1000762F6A2F11249F5750409AF0F1F08823B2
:101F20004AF0EE0FFF1FBB1F661F771F881F9150DF
:101F30005040A9F79E3F510580F00C94F10E0C948F
:101F40003C0F5F3FE4F3983ED4F386957795679511
:101F5000B795F795E7959F5FC1F7FE2B880F911D09
:101F60009695879597F90895991B79E004C0991F74
:101F7000961708F0961B881F7A95C9F780950895E3
:101F8000052E97FB1EF400940E94D70F57FD07D033
:101F90000E94EE0F07FC03D04EF40C94D70F50951F
:101FA0004095309521953F4F4F4F5F4F0895909545
:101FB0008095709561957F4F8F4F9F4F0895A29F99
:101FC000B001B39FC001A39F700D811D1124911D0D
:101FD000B29F700D811D1124911D0895A1E21A2E4A
:101FE000AA1BBB1BFD010DC0AA1FBB1FEE1FFF1FBD
:101FF000A217B307E407F50720F0A21BB30BE40B0D
:10200000F50B661F771F881F991F1A9469F7609553
:102010007095809590959B01AC01BD01CF0108950D
:10202000AEE0B0E0E6E1F0E10C94D1120D891E893A
:1020300086E08C831A8309838FEF9FE79E838D83CD
:10204000AE01475E5F4F6F89788DCE0101960E9489
:102050003210EF81F885E00FF11F10822E96E4E038
:102060000C94ED12ABE0B0E0E8E3F0E10C94C312A5
:102070006C017B018A01FC0117821682838181FF3A
:10208000CCC1CE0101963C01F6019381F70193FD8D
:10209000859193FF81917F01882309F4BAC185322C
:1020A00039F493FD859193FF81917F01853229F465
:1020B000B60190E00E942912E7CF912C212C312CFF
:1020C000FFE1F315D8F08B3279F038F4803279F0F3
:1020D0008332A1F4232D20611DC08D3261F0803345
:1020E00069F4232D216016C0832D8260382EE32DE4
:1020F000E4603E2E2AC0F32DF8601DC037FC2DC0D1
:1021000020ED280F2A3040F08E32B9F436FC81C120
:10211000232D2064322E19C036FE06C08AE0989E18
:10212000200D1124922E11C0EAE02E9E200D1124C4
:10213000222EF32DF0623F2E08C08C3621F4832D21
:102140008068382E02C0883641F4F70193FD8591EE
:1021500093FF81917F018111B3CF982F9F7D95547B
:10216000933028F40C5F1F4F9FE399830DC0833693
:1021700031F0833771F0833509F059C021C0F8017F
:10218000808189830E5F1F4F88248394912C530193
:1021900013C02801F2E04F0E511CF801A080B1805D
:1021A00036FE03C0692D70E002C06FEF7FEFC501FE
:1021B0000E941E124C018201F32DFF773F2E16C0A4
:1021C000280122E0420E511CF801A080B18036FEA9
:1021D00003C0692D70E002C06FEF7FEFC5010E9460
:1021E00013124C01F32DF0683F2E820133FC1BC00B
:1021F000822D90E088169906B0F4B60180E290E056
:102200000E9429122A94F4CFF50137FC859137FEFC
:1022100081915F01B60190E00E94291221102A9459
:1022200021E0821A91088114910471F7E8C0843684
:1022300011F0893641F5F80137FE07C060817181E0
:10224000828193810C5F1F4F08C060817181072ECE
:10225000000C880B990B0E5F1F4FF32DFF763F2E5E
:1022600097FF09C090958095709561957F4F8F4F2E
:102270009F4FF0683F2E2AE030E0A3010E946512D4
:10228000882E861845C0853731F4232D2F7EB22E37
:102290002AE030E025C0932D997FB92E8F36C1F00A
:1022A00018F4883579F0B5C0803719F0883721F0F7
:1022B000B0C0E92FE061BE2EB4FE0DC0FB2DF4606E
:1022C000BF2E09C034FE0AC0292F2660B22E06C0D8
:1022D00028E030E005C020E130E002C020E132E03B
:1022E000F801B7FE07C060817181828193810C5F24
:1022F0001F4F06C06081718180E090E00E5F1F4F2C
:10230000A3010E946512882E8618FB2DFF773F2EB1
:1023100036FE0DC0232D2E7FA22E891458F434FED4
:102320000BC032FC09C0832D8E7EA82E05C0B82CB0
:10233000A32C03C0B82C01C0B92CA4FE0FC0FE0111
:10234000E80DF11D8081803321F49A2D997EA92E0C
:1023500009C0A2FE06C0B394B39404C08A2D867847
:1023600009F0B394A3FC11C0A0FE06C0B21488F417
:10237000280C922C9B180EC0B21460F4B60180E2B7
:1023800090E00E942912B394F7CFB21418F42B18DE
:1023900002C0982C212CA4FE10C0B60180E390E06E
:1023A0000E942912A2FE17C0A1FC03C088E790E09A
:1023B00002C088E590E0B6010CC08A2D867859F0FD
:1023C000A1FE02C08BE201C080E2A7FC8DE2B60153
:1023D00090E00E942912891438F4B60180E390E05D
:1023E0000E9429129A94F7CF8A94F301E80DF11D07
:1023F0008081B60190E00E9429128110F5CF222041
:1024000009F442CEB60180E290E00E9429122A949B
:10241000F6CFF6018681978102C08FEF9FEF2B9652
:10242000E2E10C94DF12FC01059061507040011054
:10243000D8F7809590958E0F9F1F0895FC016150ED
:10244000704001900110D8F7809590958E0F9F1FD6
:1024500008950F931F93CF93DF93FB01238121FDF9
:1024600003C08FEF9FEF2CC022FF16C0468157811B
:10247000248135814217530744F4A081B1819D0125
:102480002F5F3F4F318320838C93268137812F5FCD
:102490003F4F3783268314C08B01EC01FB0100847E
:1024A000F185E02D0995892BE1F6D80116968D91DD
:1024B0009C911797019617969C938E931697CE0131
:1024C000DF91CF911F910F910895FA01AA2728302B
:1024D00051F1203181F1E8946F936E7F6E5F7F4FF1
:1024E0008F4F9F4FAF4FB1E03ED0B4E03CD0670F6D
:1024F000781F891F9A1FA11D680F791F8A1F911DC0
:10250000A11D6A0F711D811D911DA11D20D009F40F
:1025100068943F912AE0269F11243019305D319351
:10252000DEF6CF010895462F4770405D4193B3E03A
:102530000FD0C9F7F6CF462F4F70405D4A3318F0E1
:10254000495D31FD4052419302D0A9F7EACFB4E092
:10255000A6959795879577956795BA95C9F700974A
:102560006105710508959B01AC010A2E06945795EB
:10257000479537952795BA95C9F7620F731F841F42
:10258000951FA01D08952F923F924F925F926F92D8
:102590007F928F929F92AF92BF92CF92DF92EF92F3
:1025A000FF920F931F93CF93DF93CDB7DEB7CA1B74
:1025B000DB0B0FB6F894DEBF0FBECDBF09942A889F
:1025C000398848885F846E847D848C849B84AA8447
:1025D000B984C884DF80EE80FD800C811B81AA81D4
:1025E000B981CE0FD11D0FB6F894DEBF0FBECDBF9F
:0825F000ED010895F894FFCFFE
:1025F800008813B80BE803120002001C000C00044A
:102608000018000800300014002575004D6F646F35
:10261800004D004100542E566400542E566D00544F
:102628002E416D00432F6D696E004C7578003C009B
:00000001FF
